S00C00006D61696E2E7372656373
S1130000A6C0000049C1000051C1000059C1000050
S113001061C1000069C1000071C1000079C1000024
S113002081C1000089C1000091C1000099C1000094
S1130030A1C10000A9C10000B1C10000B9C1000004
S113004007C200000FC2000017C200003DC200003A
S113005045C200004DC2000055C200005DC2000050
S113006065C200006DC2000075C200007DC20000C0
S113007085C200008DC2000095C20000D8C20000F5
S1130080E0C20000E8C20000F0C20000076342368C
S1130090B79BD8A71A39685618AEBAAB558C1D3C15
S11300A0B7CC5763BD6DEDFD753EF6177231BF00D9
S11300B00000803F08000000BE922449123EABAA13
S11300C0AA2ABECDCCCC4C3E00000080BEABAAAA6E
S11300D0AA3E00000000BF000000803F00000000B6
S11300E000084178D3BB4387D1133D190E3CC3BDEF
S11300F04282AD2B3E68EC8276BED98FE1A93E4C9C
S113010080EFFFBE01C4FF7F3F0000000000001F1E
S1130110000000001F00001F101010101F00001F1F
S1130120181818181F00001F1C1C1C1C1F00001F7F
S11301301E1E1E1E1F00001F1F1F1F1F1F00030760
S11301400F1F0F070300181C1E1F1E1C180011246C
S11301501FBECFEFD0E1DEBFCDBF11E0A0E0B1E024
S1130160EEE9FDE100E00BBF02C007900D92A4355B
S1130170B107D9F721E0A4E5B1E001C01D92A63A88
S1130180B207E1F71FD70C94CD0EC098B89A8FE749
S113019097E00197F1F700C00000B898EFEEF0E0A7
S11301A03197F1F700C0000086B3EFE8F6E031972D
S11301B0F1F700C0000081700895C098B89A95E0E6
S11301C09A95F1F700008111B8988FEE90E00197AD
S11301D0F1F700C00000B8980895C098B89A85E077
S11301E08A95F1F70000B8989AE49A95F1F700C05F
S11301F086B390EF9A95F1F781700895CF93DF93CA
S1130200D82FC8E08D2F8170D8DFD695C150D1F793
S1130210DF91CF910895CF93DF93C8E0D0E0DDDF85
S113022020E8829FC0011124D695D82BC150B9F77C
S11302308D2FDF91CF910895A8DF8CECDFDF84E46C
S1130240DDCF0895CACF0895CF939FDF8CECD6DF1E
S11302508EEBD4DFE0DFC82FDEDF682F70E0762F6F
S113026066276C0F711D882777FD8095982F0E9453
S1130270860920E030E040E85DE30E94140BCF9152
S1130280089580E090E0FC01E05AFE4F1082019650
S113029082339105C1F708951F920F920FB60F9202
S11302A011240F900FBE0F901F9018951F920F925C
S11302B00FB60F9211240F900FBE0F901F90189538
S11302C01F920F920FB60F9211240F900FBE0F9032
S11302D01F9018951F920F920FB60F9211240F9032
S11302E00FBE0F901F9018951F920F920FB60F928A
S11302F011240F900FBE0F901F9018951F920F920C
S11303000FB60F9211240F900FBE0F901F901895E7
S11303101F920F920FB60F9211240F900FBE0F90E1
S11303201F9018951F920F920FB60F9211240F90E1
S11303300FBE0F901F9018951F920F920FB60F9239
S113034011240F900FBE0F901F9018951F920F92BB
S11303500FB60F9211240F900FBE0F901F90189597
S11303601F920F920FB60F9211240F900FBE0F9091
S11303701F9018951F920F920FB60F9211240F9091
S11303800FBE0F901F9018951F920F920FB60F92E9
S113039011240F900FBE0F901F9018951F920F926B
S11303A00FB60F9211240F900FBE0F901F90189547
S11303B01F920F920FB60F9211242F933F935F93C6
S11303C06F937F938F939F93AF93BF932091540127
S11303D0309155012F5F3F4F3093550120935401C5
S11303E060910C0170910D01C9010E94D10B892B00
S11303F029F480915C018F5F80935C01609110010E
S113040070911101C9010E94D10B892B29F48091AB
S11304105E018F5F80935E0160910E0170910F0108
S1130420C9010E94D10B892B29F480915D018F5F52
S113043080935D01BF91AF919F918F917F916F9157
S11304405F913F912F910F900FBE0F901F901895C1
S11304501F920F920FB60F9211240F900FBE0F90A0
S11304601F9018951F920F920FB60F9211240F90A0
S11304700FBE0F901F9018951F920F920FB60F92F8
S113048011240BB60F922F933F934F935F936F9367
S11304907F938F939F93AF93BF93EF93FF9331D247
S11304A0F0D1FF91EF91BF91AF919F918F917F9187
S11304B06F915F914F913F912F910F900BBE0F90D1
S11304C00FBE0F901F9018951F920F920FB60F92A8
S11304D011240F900FBE0F901F9018951F920F922A
S11304E00FB60F9211240F900FBE0F901F90189506
S11304F01F920F920FB60F9211240F900FBE0F9000
S11305001F9018951F920F920FB60F9211240F90FF
S11305100FBE0F901F9018951F920F920FB60F9257
S113052011240F900FBE0F901F9018951F920F92D9
S11305300FB60F9211240F900FBE0F901F901895B5
S11305401F920F920FB60F9211240F900FBE0F90AF
S11305501F9018951F920F920FB60F9211240F90AF
S11305600FBE0F901F9018951F920F920FB60F9207
S113057011240F900FBE0F901F9018951F920F9289
S11305800FB60F9211240F900FBE0F901F90189565
S11305901F920F920FB60F9211240F900FBE0F905F
S11305A01F9018951F920F920FB60F9211240BB63D
S11305B00F922F933F934F935F936F937F938F93F8
S11305C09F93AF93BF93CF93EF93FF938ED1C82F95
S11305D094D1CC3731F41092920181E080935F0181
S11305E012C0E0919201F0E0E05AFE4FC083809186
S11305F092018F5F8093920180919201843318F06D
S1130600109292013EDEFF91EF91CF91BF91AF9195
S11306109F918F917F916F915F914F913F912F9116
S11306200F900BBE0F900FBE0F901F9018951F9246
S11306300F920FB60F9211240F900FBE0F901F90C0
S113064018951F920F920FB60F9211240F900FBEA0
S11306500F901F9018951F920F920FB60F921124AE
S11306600F900FBE0F901F9018951F920F920FB608
S11306700F9211240F900FBE0F901F901895982F72
S1130680907F95BBA89AAA9AE3EFF1E03197F1F72E
S113069000C00000AA98A898E3EFF1E03197F1F7C1
S11306A000C00000F0E18F9FC001112485BBA89A0F
S11306B0AA9A83EF91E00197F1F700C00000AA988D
S11306C0A898E3EFF1E03197F1F700C00000089536
S11306D0982F907F95BBAA9AE3EFF1E03197F1F759
S11306E000C00000AA98E3EFF1E03197F1F700C0F1
S11306F00000F0E18F9FC001112485BBAA9A83EF0B
S113070091E00197F1F700C00000AA98E3EFF1E04F
S11307103197F1F700C00000089581E0D9DF84E447
S113072091E00197F1F700C0000008950F931F9323
S1130730CF93DF93FC0101900020E9F731971E2F3E
S1130740181B009759F0112349F0082FC02FD92FF7
S1130750899195DF8C2F801B8117D0F3DF91CF9186
S11307601F910F910895623031F0633031F06130A0
S113077029F4805C03C08C5E01C08C5A8068A8CFC9
S11307800895EF92FF920F931F93CF93DF938C0101
S1130790660F660F660F6064E62EC0E0D0E0F801D5
S11307A0EC0FFD1FF4908C2F8E0D92DF8F2D67DFE1
S11307B02196C830D10599F7DF91CF911F910F9100
S11307C0FF90EF9008951F93CF93DF938BE49DE107
S11307D00197F1F700C0000015BA15BA84B3806F11
S11307E084BB84B3876084BB80E385BBAA9A83EF10
S11307F091E00197F1F700C00000AA9883EF91E01F
S11308000197F1F700C0000080E385BBAA9A83EF4B
S113081091E00197F1F700C00000AA9883EF91E0FE
S11308200197F1F700C0000080E285BBAA9A83EF2C
S113083091E00197F1F700C00000AA9883EF91E0DE
S11308400197F1F700C0000088E242DF8CE040DF4E
S1130850CEE0D1E060E011E0160FCE0192DF2896E1
S1130860183011F0612FF7CFDF91CF911F910895C8
S1130870909398008093990040939A0060939D0010
S11308800895EBE9F0E0908195FFFDCF80939C0003
S11308900895EF92FF920F931F93CF93DF93FC0180
S11308A0DC010D900020E9F711977D01E81AF90A9F
S11308B01E141F049CF48081882381F08F010F5F34
S11308C01F4FC0E0D0E005C0F80181918F0188235B
S11308D029F0D7DF2196EC16FD06B1F7DF91CF9111
S11308E01F910F91FF90EF900895EBE9F0E0808164
S11308F08823ECF780919C0008955D9BFECF8CB912
S113090008955F9BFECF8CB1089583B7856083BF44
S113091083B7886083BF8CE781BF87B7826087BF56
S113092008958F70823089F018F4813031F00BC053
S1130930843029F0883029F006C082E0089584E0EC
S1130940089581E0089580E0089583E00895982F44
S113095080915901882369F02091580192131BC09A
S11309608330D8F48F5F809359018330C1F08111B3
S113097007C09093580181E08093590180E001C041
S113098080E020915801921761F09093580191E012
S113099090935901089580E0F4CF80E0F2CF892F3D
S11309A0F0CF08954F925F926F927F928F929F92B1
S11309B0AF92BF92CF92DF92EF92FF920F931F9369
S11309C04B015C0129013A01C801B70120E030E084
S11309D040E05FE329D66B017C01A301920162D35D
S11309E0A5019401C3D3882324F481E080935601A4
S11309F012C0A7019601C301B20153D39B01AC01FC
S1130A00C501B401B3D3882324F41092560180E0C5
S1130A1002C0809156011F910F91FF90EF90DF90DB
S1130A20CF90BF90AF909F908F907F906F905F908A
S1130A304F900895CF92DF92EF92FF928823B1F006
S1130A4020E030E040E85FE360910401709105012B
S1130A50809106019091070125D36093040170935E
S1130A600501809306019093070115C020E030E052
S1130A7040E85FE3609104017091050180910601F3
S1130A80909107010ED36093040170930501809344
S1130A90060190930701C0900401D0900501E090F5
S1130AA00601F090070120E030E048E453E4C70178
S1130AB0B60101D518166CF480E090E0A8E4B3E424
S1130AC08093040190930501A0930601B09307015C
S1130AD015C020E030E048E453ECC701B60146D32A
S1130AE0882364F480E090E0A8E4B3EC80930401EC
S1130AF090930501A0930601B0930701FF90EF9036
S1130B00DF90CF9008958823B1F020E030E040E8F2
S1130B105FE3609100017091010180910201909165
S1130B200301C0D26093000170930101809302011C
S1130B309093030115C020E030E040E85FE360914A
S1130B400001709101018091020190910301A9D2E9
S1130B50609300017093010180930201909303015B
S1130B6020E030E040E05FE360910001709101011A
S1130B708091020190910301F9D2882364F480E00A
S1130B8090E0A0E8BFE38093000190930101A0935B
S1130B900201B09303010895CF93C82F9091570198
S1130BA0913071F028F0923011F19330B1F13DC0E1
S1130BB0C39A823009F03BC081E08093570137C06B
S1130BC0C398833019F481E035DF0BC0843019F405
S1130BD080E030DF2CC0823021F482E08093570122
S1130BE026C0C13021F583E08093570120C08330B3
S1130BF019F481E088DF0BC0843019F480E083DFCE
S1130C0016C0823021F483E08093570110C0C130B4
S1130C1071F483E0809357010AC080915B018F5F78
S1130C2080935B011092570102C010925701CF913B
S1130C30089589B380958F700895882319F0C19A17
S1130C40C4980895C198C49A08951ABA8FE08BBBCA
S1130C508EE187BB81E088BB089580E090E0A0EA44
S1130C60B1E48093040190930501A0930601B0932D
S1130C70070180E090E0A0E4B0E480930001909349
S1130C800101A0930201B0930301089581E08093D0
S1130C909D0180E090E0A0EAB1E480939E019093EE
S1130CA09F01A093A001B093A10180E090E0A0E493
S1130CB0B0E48093A2019093A301A093A401B09304
S1130CC0A50149E050E060E070E08DE991E0A9C73A
S1130CD0089549E050E060E070E08DE991E091D73B
S1130CE080919D018F3F19F4D1DFB7CF0895809192
S1130CF09E0190919F01A091A001B091A1018093C8
S1130D00040190930501A0930601B093070180911B
S1130D10A2019091A301A091A401B091A501809397
S1130D20000190930101A0930201B093030108957F
S1130D3081E080939D018091040190910501A0912F
S1130D400601B091070180939E0190939F01A093A7
S1130D50A001B093A1018091000190910101A091A3
S1130D600201B09103018093A2019093A301A09387
S1130D70A401B093A50149E050E060E070E08DE982
S1130D8091E04FC7089560E082E0EDDC82E191E0FC
S1130D90CDDC61E081E0E7DC8FE191E0C7DC2FEF9F
S1130DA087EA91E6215080409040E1F700C00000BE
S1130DB0B4CC0895B2DC60E080E0D5DC8EE291E052
S1130DC0B5DC60E089E0CFDC8DE291E0AFDC61E08E
S1130DD080E0C9DC81E391E0A9DC61E089E0C3DC67
S1130DE084E391E0A3CC089598DC60E087E0BBDC69
S1130DF087E391E09BDC2FEF89E698E12150804066
S1130E009040E1F700C0000008958F929F92AF9246
S1130E10BF92CF92DF92EF92FF920F931F93CF93E3
S1130E20DF93EC017B016A018901688179818A8100
S1130E309B8139D24B015C01F60171836083B70158
S1130E40882777FD8095982F61D29B01AC0160E0E3
S1130E5070E080E291E44BD46B017C01B4018827FB
S1130E6077FD8095982F52D29B01AC0168817981DE
S1130E708A819B8116D1A7019601D6D320E030E068
S1130E8040E05FE30FD10FD2F80171836083DF91FB
S1130E90CF911F910F91FF90EF90DF90CF90BF9073
S1130EA0AF909F908F900895EF92FF920F931F93AE
S1130EB0CF93DF93CDB7DEB728970FB6F894DEBF94
S1130EC00FBECDBF60E08DE04EDC80915A018823D7
S1130ED021F08EE391E02ADC03C082E491E026DC79
S1130EE060E082E040DC9E01295F3F4FAE014B5F32
S1130EF05F4F61E070E088E091E087DF88858F9341
S1130F008F818F938E818F938D818F930F2EF6E433
S1130F10EF2EF1E0FF2EF02DFF92EF928E010F5F86
S1130F201F4F1F930F9351D4C80100DC61E082E08E
S1130F301ADC9E01295F3F4FAE014B5F5F4F61E0BA
S1130F4070E084E091E061DF88858F938F818F93D7
S1130F508E818F938D818F93FF92EF921F930F93C6
S1130F6034D4C801E3DB61E08BE0FDDB9E01295F43
S1130F703F4FAE014B5F5F4F61E070E080E091E076
S1130F8044DF88858F938F818F938E818F938D819A
S1130F908F93FF92EF921F930F9317D4C801C6DB70
S1130FA00FB6F894DEBF0FBECDBF28960FB6F894E7
S1130FB0DEBF0FBECDBFDF91CF911F910F91FF9088
S1130FC0EF90089542DEFFDBDEDEF4DE82DE48E9E8
S1130FD066E080E190E04CDC8EE491E05ADC95DC44
S1130FE0789410E0D2E0C1E080915C01882309F498
S1130FF03BC0C29A111103C01FD91C2F33C011303A
S113100021F420D981112DC02DC0123059F5C29878
S11310101BD9609308017093090180930A0190938E
S11310200B01E0900001F090010100910201109188
S11310300301209104013091050140910601509172
S11310400701B0DC80935A01F8DD2FEF80E792E0CE
S1131050215080409040E1F700C00000C29A10E0A7
S113106001C01D2F10925C0180915E01882331F034
S1131070E0DD57DC6CDC90DD10925E0180915D0157
S1131080882319F011DF10925D0180915B018823A0
S113109009F4AACF4DDEA8DE8DDE06DF10925B01D7
S11310A0A3CF5058BB27AA270ED0CBC1BCD130F058
S11310B0C1D120F031F49F3F11F41EF48CC10EF421
S11310C0E095E7FB82C1E92FCDD180F3BA1762071F
S11310D073078407950718F071F49EF5E5C10EF4C3
S11310E0E0950B2EBA2FA02D0B01B90190010C0134
S11310F0CA01A0011124FF27591B99F0593F50F44C
S1131100503E68F11A16F040A22F232F342F4427A3
S1131110585FF3CF469537952795A795F04053959B
S1131120C9F77EF41F16BA0B620B730B840BBAF06B
S11311309150A1F0FF0FBB1F661F771F881FC2F7D6
S11311400EC0BA0F621F731F841F48F487957795EA
S11311506795B795F7959E3F08F0B3CF9395880FA1
S113116008F09927EE0F9795879508950AD108F40A
S113117081E008950CD065C15DD140F054D130F0C8
S113118021F45F3F19F021C151118FC124C16AD1EB
S113119098F39923C9F35523B1F3951B550BBB273A
S11311A0AA2762177307840738F09F5F5F4F220FE7
S11311B0331F441FAA1FA9F333D00E2E3AF0E0E8E0
S11311C030D091505040E695001CCAF729D0FE2F2C
S11311D027D0660F771F881FBB1F261737074807BE
S11311E0AB07B0E809F0BB0B802DBF01FF27935874
S11311F05F4F2AF09E3F510568F0E7C056C15F3F3C
S1131200ECF3983EDCF3869577956795B795F7955B
S11312109F5FC9F7880F911D9695879597F9089553
S1131220E1E0660F771F881FBB1F621773078407EF
S1131230BA0720F0621B730B840BBA0BEE1F88F7FE
S1131240E095089519F40EF0C0C02EC1C4C012D1A7
S1131250C8F39638C0F707F80F92E8942BE33AEAFC
S113126048EB5FE7EFD10F920F920F924DB75EB745
S11312700F92A7D1ECE8F0E0B1D04F915F91EF91DC
S1131280FF91E595EE1FFF1F49F0FE57E0684427E4
S1131290EE0F441FFA95E1F74195550B19D10F90C4
S11312A007FE0DC1089504D06894B111FEC00895DD
S11312B0E1D088F09F5790F0B92F9927B751A0F04B
S11312C0D1F0660F771F881F991F1AF0BA95C9F7D6
S11312D012C0B13081F0E8D0B1E00895E5C0672FC5
S11312E0782F8827B85F39F0B93FCCF38695779586
S11312F06795B395D9F73EF490958095709561956F
S11313007F4F8F4F9F4F0895E89409C097FB3EF499
S113131090958095709561957F4F8F4F9F4F99233E
S1131320A9F0F92F96E9BB279395F69587957795BC
S11313306795B795F111F8CFFAF4BB0F11F460FF7C
S11313401BC06F5F7F4F8F4F9F4F16C0882311F0D4
S113135096E911C0772321F09EE8872F762F05C0E8
S1131360662371F096E8862F70E060E02AF09A9583
S1131370660F771F881FDAF7880F9695879597F978
S11313800895990F0008550FAA0BE0E8FEEF161612
S11313901706E807F907C0F012161306E407F50765
S11313A098F0621B730B840B950B39F40A2661F0D9
S11313B0232B242B252B21F408950A2609F4A1407C
S11313C0A6958FEF811D811D089597F99F6780E889
S11313D070E060E008959FEF80EC0895DF93CF9371
S11313E01F930F93FF92EF92DF927B018C0168941D
S11313F005C0DA2EEF0124D1FE01E894A5912591D0
S1131400359145915591AEF3EF015DDEFE019701F3
S1131410A801DA9479F7DF90EF90FF900F911F9174
S1131420CF91DF91089500240A9416161706180622
S11314300906089500240A941216130614060506D4
S11314400895092E0394000C11F4882352F0BB0F65
S113145040F4BF2B11F460FF04C06F5F7F4F8F4FC8
S11314609F4F089557FD9058440F551F59F05F3F03
S113147071F04795880F97FB991F61F09F3F79F0B2
S113148087950895121613061406551FF2CF469534
S1131490F1DF08C0161617061806991FF1CF8695B6
S11314A07105610508940895E894BB27662777279A
S11314B0CB0197F9089565DF08F48FEF08959B0138
S11314C0AC0160E070E080E89FE354CE7ECF5BC166
S11314D0D1DFE8F39923D9F3940F511DBBF3915055
S11314E0504094F059F0882332F0660F771F881F1C
S11314F091505040C1F79E3F510544F7880F911D0C
S11315009695879597F908955F3FACF0983E9CF0C7
S1131510BB27869577956795B79508F4B160939541
S1131520C1F7BB0F58F711F460FFE8CF6F5F7F4F2F
S11315308F4F9F4FE3CFB9CF0EF025C14CCF6894A6
S113154044CF98DFC8F39923D1F3C6F3DF93CF9345
S11315501F930F93FF92C92FDD2788232AF0219729
S1131560660F771F881FDAF720E030E040E85FEB72
S11315709FE3883920F0803E30F021968F7792DD0A
S1131580E4EBF0E003C08EDDE1EEF0E027DF8B0159
S1131590BE01EC01FB2E6F5771097595771F880BFF
S11315A0990BB4DE28E132E741E35FE349D0AF2D84
S11315B09801AE01FF900F911F91CF91DF9183DDD0
S11315C040CFFA01DC01AA0FBB1F9B01AC01BF573E
S11315D028F422273327442750781FC0B75188F4B2
S11315E0AB2F0024469537952795011CA395D2F37C
S11315F0002069F0220F331F441FB395DAF30DD096
S113160050CD61307105A0E88A07B94630F49B01DA
S1131610AC016627772788279078309621F02083BD
S113162031834283538308950BD00BCFFCDE28F023
S113163001DF18F0952309F0C8CECDCE112435CFA3
S113164011DFA0F3959FD1F3950F50E0551F629FD2
S1131650F001729FBB27F00DB11D639FAA27F00D07
S1131660B11DAA1F649F6627B00DA11D661F829F2E
S11316702227B00DA11D621F739FB00DA11D621F13
S1131680839FA00D611D221F749F3327A00D611D30
S1131690231F849F600D211D822F762F6A2F112412
S11316A09F5750408AF0E1F088234AF0EE0FFF1F65
S11316B0BB1F661F771F881F91505040A9F79E3F9C
S11316C0510570F082CEF1CE5F3FECF3983EDCF32F
S11316D0869577956795B795F795E7959F5FC1F7D9
S11316E0FE2B880F911D9695879597F90895FA0119
S11316F0EE0FFF1F30962105310599F16115710533
S113170061F48038BFE39B0749F168949038810500
S113171061F08038BFEF9B0741F0992342F5FF3F0A
S1131720E1053105210511F1E8940894E795D90103
S1131730AA2329F4AB2FBE2FF85FD0F310C0FF5FAC
S113174070F4A695E0F7F73950F019F0FF3A38F441
S11317509F779F930CD00F9007FC905808953EF00C
S11317603ACE60E070E080E89FE308954FE79F770A
S11317705F934F933F932F93E4DE2F913F914F91CB
S11317805F9152DF64CD9F3F31F0915020F48795F3
S113179077956795B795880F911D9695879597F9D5
S11317A00895AA1BBB1B51E107C0AA1FBB1FA617A4
S11317B0B70710F0A61BB70B881F991F5A95A9F7F6
S11317C080959095BC01CD0108950F931F93CF93FD
S11317D0DF93CDB7DEB72E970FB6F894DEBF0FBEFA
S11317E0CDBF0D891E8986E08C831A8309838FEF10
S11317F09FE79E838D83AE01475E5F4F6F89788D2F
S1131800CE01019610D0EF81F885E00FF11F108210
S11318102E960FB6F894DEBF0FBECDBFDF91CF91E9
S11318201F910F9108952F923F924F925F926F9262
S11318307F928F929F92AF92BF92CF92DF92EF925C
S1131840FF920F931F93CF93DF93CDB7DEB72C97FF
S11318500FB6F894DEBF0FBECDBF7C016B018A01C9
S1131860FC0117821682838181FFB0C1CE010196EB
S11318704C01F7019381F60193FD859193FF8191CA
S11318806F01882309F49EC1853239F493FD859153
S113189093FF81916F01853221F4B70190E0EDD17E
S11318A0E8CF512C312C20E02032A0F48B3269F0A7
S11318B030F4803259F0833269F420612CC08D32C7
S11318C039F0803339F4216026C02260246023C0BB
S11318D0286021C027FD27C030ED380F3A3078F456
S11318E026FF06C0FAE05F9E300D1124532E13C06C
S11318F08AE0389E300D1124332E20620CC08E32C3
S113190021F426FD5FC1206406C08C3611F42068E2
S113191002C0883641F4F60193FD859193FF8191CD
S11319206F018111C1CF982F9F7D9554933028F476
S11319300C5F1F4FFFE3F9830DC0833631F083370B
S113194071F0833509F057C021C0F8018081898383
S11319500E5F1F4F44244394512C540114C038018A
S1131960F2E06F0E711CF801A080B18026FF03C065
S1131970652D70E002C06FEF7FEFC5012C8772D137
S11319802C0183012C852F77222E16C03801F2E01A
S11319906F0E711CF801A080B18026FF03C0652D75
S11319A070E002C06FEF7FEFC5012C8750D12C018E
S11319B02C852068222E830123FC19C0832D90E0FE
S11319C048165906A0F4B70180E290E056D13A9443
S11319D0F5CFF50127FC859127FE81915F01B701C1
S11319E090E04BD131103A94F1E04F1A5108411470
S11319F0510479F7DEC0843611F0893631F5F801E7
S1131A0027FF07C060817181828193810C5F1F4F22
S1131A1008C060817181882777FD8095982F0E5FBB
S1131A201F4F2F76B22E97FF09C090958095709521
S1131A3061957F4F8F4F9F4F2068B22E2AE030E090
S1131A40A4014DD1A82EA81843C0853729F42F7EB0
S1131A50B22E2AE030E025C0F22FF97FBF2E8F3658
S1131A60C1F018F4883579F0ADC0803719F08837A3
S1131A7021F0A8C02F2F2061B22EB4FE0DC08B2DF3
S1131A808460B82E09C024FF0AC09F2F9660B92E27
S1131A9006C028E030E005C020E130E002C020E1CB
S1131AA032E0F801B7FE07C06081718182819381C1
S1131AB00C5F1F4F06C06081718180E090E00E5F73
S1131AC01F4FA4010CD1A82EA818FB2DFF77BF2E01
S1131AD0B6FE0BC02B2D2E7FA51450F4B4FE0AC005
S1131AE0B2FC08C02B2D2E7E05C07A2C2B2D03C0F2
S1131AF07A2C01C0752C24FF0DC0FE01EA0DF11DE6
S1131B008081803311F4297E09C022FF06C07394BA
S1131B10739404C0822F867809F0739423FD12C055
S1131B2020FF06C05A2C731418F4530C5718732C46
S1131B30731460F4B70180E290E02C879ED0739414
S1131B402C85F6CF731410F4371801C0312C24FF00
S1131B5011C0B70180E390E02C878FD02C8522FF41
S1131B6016C021FF03C088E590E002C088E790E03A
S1131B70B7010CC0822F867851F021FD02C080E2AB
S1131B8001C08BE227FD8DE2B70190E076D0A51469
S1131B9030F4B70180E390E070D05A94F8CFAA945F
S1131BA0F401EA0DF11D8081B70190E066D0A11027
S1131BB0F6CF332009F45DCEB70180E290E05DD02A
S1131BC03A94F7CFF7018681978102C08FEF9FEF98
S1131BD02C960FB6F894DEBF0FBECDBFDF91CF9128
S1131BE01F910F91FF90EF90DF90CF90BF90AF9037
S1131BF09F908F907F906F905F904F903F902F9029
S1131C000895DC01CB01FC01E199FECF06C0FFBBC6
S1131C10EEBBE09A31960DB20D9241505040B8F7A8
S1131C200895DC01CB0102C02D9105D041505040F4
S1131C30D8F70895262FE199FECF9FBB8EBB2DBB0D
S1131C400FB6F894E29AE19A0FBE01960895FC014A
S1131C500590615070400110D8F7809590958E0FD3
S1131C609F1F0895FC016150704001900110D8F746
S1131C70809590958E0F9F1F08950F931F93CF9378
S1131C80DF93182F092FEB018B8181FD03C08FEFA8
S1131C909FEF20C082FF10C04E815F812C813D8167
S1131CA0421753077CF4E881F9819F012F5F3F4F6E
S1131CB039832883108306C0E885F985812F099527
S1131CC0892B29F72E813F812F5F3F4F3F832E833E
S1131CD0812F902FDF91CF911F910F910895FA01D9
S1131CE0AA27283051F1203181F1E8946F936E7F57
S1131CF06E5F7F4F8F4F9F4FAF4FB1E03ED0B4E048
S1131D003CD0670F781F891F9A1FA11D680F791F88
S1131D108A1F911DA11D6A0F711D811D911DA11D99
S1131D2020D009F468943F912AE0269F11243019A9
S1131D30305D3193DEF6CF010895462F4770405D44
S1131D404193B3E00FD0C9F7F6CF462F4F70405DF3
S1131D504A3318F0495D31FD4052419302D0A9F74E
S1131D60EACFB4E0A6959795879577956795BA9548
S1131D70C9F700976105710508959B01AC010A2E0E
S1131D8006945795479537952795BA95C9F7620FE5
S1111D90731F841F951FA01D0895F894FFCFA4
S1131D9E0000A0400000A0410000F041E803F4015F
S1131DAE640057696E6520436F6E74726F6C0053D6
S1131DBE65726166696D2043756E68610053543AAD
S1131DCE00533A00443A00205341564544004F4EC6
S1131DDE20004F4646002533642E253164004865A5
S1071DEE6C6C6F00A6
S9030000FC
